{
  "_format": "hh-sol-artifact-1",
  "contractName": "B",
  "sourceName": "contracts/A.sol",
  "abi": [
    {
      "inputs": [
        {
          "internalType": "address",
          "name": "_A",
          "type": "address"
        }
      ],
      "stateMutability": "nonpayable",
      "type": "constructor"
    },
    {
      "inputs": [],
      "name": "getB",
      "outputs": [
        {
          "internalType": "uint256",
          "name": "",
          "type": "uint256"
        }
      ],
      "stateMutability": "view",
      "type": "function"
    },
    {
      "inputs": [
        {
          "internalType": "uint256",
          "name": "_b",
          "type": "uint256"
        }
      ],
      "name": "setB",
      "outputs": [],
      "stateMutability": "nonpayable",
      "type": "function"
    }
  ],
  "bytecode": "0x608060405234801561001057600080fd5b506040516104e73803806104e78339818101604052810190610032919061011b565b80600160026101000a81548173ffffffffffffffffffffffffffffffffffffffff021916908373ffffffffffffffffffffffffffffffffffffffff160217905550600e6000819055506045600160006101000a81548160ff021916908360ff16021790555060f56001806101000a81548160ff021916908360ff16021790555050610148565b600080fd5b600073ffffffffffffffffffffffffffffffffffffffff82169050919050565b60006100e8826100bd565b9050919050565b6100f8816100dd565b811461010357600080fd5b50565b600081519050610115816100ef565b92915050565b600060208284031215610131576101306100b8565b5b600061013f84828501610106565b91505092915050565b610390806101576000396000f3fe608060405234801561001057600080fd5b50600436106100365760003560e01c806309cdcf9b1461003b578063a1c5191514610057575b600080fd5b610055600480360381019061005091906101ed565b610075565b005b61005f6101a9565b60405161006c9190610229565b60405180910390f35b80600081905550600080600160029054906101000a900473ffffffffffffffffffffffffffffffffffffffff1673ffffffffffffffffffffffffffffffffffffffff166001846100c59190610273565b6040516024016100d59190610229565b6040516020818303038152906040527fd82cf790000000000000000000000000000000000000000000000000000000007bffffffffffffffffffffffffffffffffffffffffffffffffffffffff19166020820180517bffffffffffffffffffffffffffffffffffffffffffffffffffffffff838183161783525050505060405161015f9190610343565b600060405180830381855af49150503d806000811461019a576040519150601f19603f3d011682016040523d82523d6000602084013e61019f565b606091505b5091509150505050565b60008054905090565b600080fd5b6000819050919050565b6101ca816101b7565b81146101d557600080fd5b50565b6000813590506101e7816101c1565b92915050565b600060208284031215610203576102026101b2565b5b6000610211848285016101d8565b91505092915050565b610223816101b7565b82525050565b600060208201905061023e600083018461021a565b92915050565b7f4e487b7100000000000000000000000000000000000000000000000000000000600052601160045260246000fd5b600061027e826101b7565b9150610289836101b7565b9250827fffffffffffffffffffffffffffffffffffffffffffffffffffffffffffffffff038211156102be576102bd610244565b5b828201905092915050565b600081519050919050565b600081905092915050565b60005b838110156102fd5780820151818401526020810190506102e2565b8381111561030c576000848401525b50505050565b600061031d826102c9565b61032781856102d4565b93506103378185602086016102df565b80840191505092915050565b600061034f8284610312565b91508190509291505056fea26469706673582212204e6d6e567e90edcad0d596ef01ec7dcff9d8238d2feaa776f7e79f9ed45be6b864736f6c634300080a0033",
  "linkReferences": {},
  "deployedLinkReferences": {}
}