{
  "_format": "hh-sol-artifact-1",
  "contractName": "B",
  "sourceName": "contracts/A.sol",
  "abi": [
    {
      "inputs": [
        {
          "internalType": "address",
          "name": "_A",
          "type": "address"
        }
      ],
      "stateMutability": "nonpayable",
      "type": "constructor"
    },
    {
      "inputs": [],
      "name": "getB",
      "outputs": [
        {
          "internalType": "uint256",
          "name": "",
          "type": "uint256"
        }
      ],
      "stateMutability": "view",
      "type": "function"
    },
    {
      "inputs": [
        {
          "internalType": "uint256",
          "name": "_b",
          "type": "uint256"
        }
      ],
      "name": "setB",
      "outputs": [],
      "stateMutability": "nonpayable",
      "type": "function"
    }
  ],
  "bytecode": "0x608060405234801561001057600080fd5b506040516104de3803806104de83398181016040528101906100329190610109565b80600060020160026101000a81548173ffffffffffffffffffffffffffffffffffffffff021916908373ffffffffffffffffffffffffffffffffffffffff160217905550600e6000600101819055506045600060020160006101000a81548160ff021916908360ff16021790555050610136565b600080fd5b600073ffffffffffffffffffffffffffffffffffffffff82169050919050565b60006100d6826100ab565b9050919050565b6100e6816100cb565b81146100f157600080fd5b50565b600081519050610103816100dd565b92915050565b60006020828403121561011f5761011e6100a6565b5b600061012d848285016100f4565b91505092915050565b610399806101456000396000f3fe608060405234801561001057600080fd5b50600436106100365760003560e01c806309cdcf9b1461003b578063a1c5191514610057575b600080fd5b610055600480360381019061005091906101f6565b610075565b005b61005f6101af565b60405161006c9190610232565b60405180910390f35b80600060010181905550600080600060020160029054906101000a900473ffffffffffffffffffffffffffffffffffffffff1673ffffffffffffffffffffffffffffffffffffffff166001846100cb919061027c565b6040516024016100db9190610232565b6040516020818303038152906040527fd82cf790000000000000000000000000000000000000000000000000000000007bffffffffffffffffffffffffffffffffffffffffffffffffffffffff19166020820180517bffffffffffffffffffffffffffffffffffffffffffffffffffffffff8381831617835250505050604051610165919061034c565b600060405180830381855af49150503d80600081146101a0576040519150601f19603f3d011682016040523d82523d6000602084013e6101a5565b606091505b5091509150505050565b60008060010154905090565b600080fd5b6000819050919050565b6101d3816101c0565b81146101de57600080fd5b50565b6000813590506101f0816101ca565b92915050565b60006020828403121561020c5761020b6101bb565b5b600061021a848285016101e1565b91505092915050565b61022c816101c0565b82525050565b60006020820190506102476000830184610223565b92915050565b7f4e487b7100000000000000000000000000000000000000000000000000000000600052601160045260246000fd5b6000610287826101c0565b9150610292836101c0565b9250827fffffffffffffffffffffffffffffffffffffffffffffffffffffffffffffffff038211156102c7576102c661024d565b5b828201905092915050565b600081519050919050565b600081905092915050565b60005b838110156103065780820151818401526020810190506102eb565b83811115610315576000848401525b50505050565b6000610326826102d2565b61033081856102dd565b93506103408185602086016102e8565b80840191505092915050565b6000610358828461031b565b91508190509291505056fea2646970667358221220228381a94567c45dd36e64787ea6aa829d2f6524fd8e122330e206ef41585ae664736f6c634300080a0033",
  "linkReferences": {},
  "deployedLinkReferences": {}
}