{
  "_format": "hh-sol-artifact-1",
  "contractName": "Hero",
  "sourceName": "contracts/Hero.sol",
  "abi": [
    {
      "inputs": [
        {
          "internalType": "enum Hero.Class",
          "name": "class",
          "type": "uint8"
        }
      ],
      "name": "createHero",
      "outputs": [],
      "stateMutability": "payable",
      "type": "function"
    },
    {
      "inputs": [],
      "name": "generateRandom",
      "outputs": [
        {
          "internalType": "uint256",
          "name": "",
          "type": "uint256"
        }
      ],
      "stateMutability": "view",
      "type": "function"
    },
    {
      "inputs": [
        {
          "internalType": "uint256",
          "name": "hero",
          "type": "uint256"
        }
      ],
      "name": "getDex",
      "outputs": [
        {
          "internalType": "uint32",
          "name": "",
          "type": "uint32"
        }
      ],
      "stateMutability": "pure",
      "type": "function"
    },
    {
      "inputs": [
        {
          "internalType": "uint256",
          "name": "hero",
          "type": "uint256"
        }
      ],
      "name": "getHealth",
      "outputs": [
        {
          "internalType": "uint32",
          "name": "",
          "type": "uint32"
        }
      ],
      "stateMutability": "pure",
      "type": "function"
    },
    {
      "inputs": [
        {
          "internalType": "uint256",
          "name": "hero",
          "type": "uint256"
        }
      ],
      "name": "getHero",
      "outputs": [
        {
          "internalType": "uint32",
          "name": "",
          "type": "uint32"
        }
      ],
      "stateMutability": "pure",
      "type": "function"
    },
    {
      "inputs": [],
      "name": "getHeros",
      "outputs": [
        {
          "internalType": "uint256[]",
          "name": "",
          "type": "uint256[]"
        }
      ],
      "stateMutability": "view",
      "type": "function"
    },
    {
      "inputs": [
        {
          "internalType": "uint256",
          "name": "hero",
          "type": "uint256"
        }
      ],
      "name": "getItelect",
      "outputs": [
        {
          "internalType": "uint32",
          "name": "",
          "type": "uint32"
        }
      ],
      "stateMutability": "pure",
      "type": "function"
    },
    {
      "inputs": [
        {
          "internalType": "uint256",
          "name": "hero",
          "type": "uint256"
        }
      ],
      "name": "getMagic",
      "outputs": [
        {
          "internalType": "uint32",
          "name": "",
          "type": "uint32"
        }
      ],
      "stateMutability": "pure",
      "type": "function"
    }
  ],
  "bytecode": "0x608060405234801561001057600080fd5b50610a5e806100206000396000f3fe60806040526004361061007b5760003560e01c80635bc0a6231161004e5780635bc0a623146101505780635e7e236d1461018d5780636bf56132146101a9578063b5f0f1b7146101e65761007b565b806302e4af011461008057806321d80111146100ab5780633be38b49146100e85780633fc70f2c14610113575b600080fd5b34801561008c57600080fd5b50610095610223565b6040516100a291906105dd565b60405180910390f35b3480156100b757600080fd5b506100d260048036038101906100cd9190610629565b610256565b6040516100df9190610675565b60405180910390f35b3480156100f457600080fd5b506100fd610267565b60405161010a919061074e565b60405180910390f35b34801561011f57600080fd5b5061013a60048036038101906101359190610629565b6102fb565b6040516101479190610675565b60405180910390f35b34801561015c57600080fd5b5061017760048036038101906101729190610629565b61030c565b6040516101849190610675565b60405180910390f35b6101a760048036038101906101a29190610795565b61031d565b005b3480156101b557600080fd5b506101d060048036038101906101cb9190610629565b6105a2565b6040516101dd9190610675565b60405180910390f35b3480156101f257600080fd5b5061020d60048036038101906102089190610629565b6105b3565b60405161021a9190610675565b60405180910390f35b600044426040516020016102389291906107e3565b6040516020818303038152906040528051906020012060001c905090565b6000601f600283901c169050919050565b60606000803373ffffffffffffffffffffffffffffffffffffffff1673ffffffffffffffffffffffffffffffffffffffff1681526020019081526020016000208054806020026020016040519081016040528092919081815260200182805480156102f157602002820191906000526020600020905b8154815260200190600101908083116102dd575b5050505050905090565b6000601f600583901c169050919050565b6000601f601183901c169050919050565b66b1a2bc2ec50000341015610367576040517f08c379a000000000000000000000000000000000000000000000000000000000815260040161035e9061086c565b60405180910390fd5b6000600567ffffffffffffffff8111156103845761038361088c565b5b6040519080825280602002602001820160405280156103b25781602001602082028036833780820191505090505b5090506002816000815181106103cb576103ca6108bb565b5b6020026020010181815250506007816001815181106103ed576103ec6108bb565b5b602002602001018181525050600c8160028151811061040f5761040e6108bb565b5b602002602001018181525050601181600381518110610431576104306108bb565b5b602002602001018181525050601681600481518110610453576104526108bb565b5b602002602001018181525050600060059050600083600281111561047a576104796108ea565b5b90505b600082610488610223565b6104929190610948565b90506000600184600d6104a591906109a8565b6104ad610223565b6104b79190610948565b6104c191906109a8565b90508482815181106104d6576104d56108bb565b5b602002602001015181901b8317925083806104f0906109fe565b945050848481518110610506576105056108bb565b5b6020026020010151858381518110610521576105206108bb565b5b60200260200101818152505050506000821161047d576000803373ffffffffffffffffffffffffffffffffffffffff1673ffffffffffffffffffffffffffffffffffffffff16815260200190815260200160002081908060018154018082558091505060019003906000526020600020016000909190919091505550505050565b6000601f600c83901c169050919050565b6000601f600783901c169050919050565b6000819050919050565b6105d7816105c4565b82525050565b60006020820190506105f260008301846105ce565b92915050565b600080fd5b610606816105c4565b811461061157600080fd5b50565b600081359050610623816105fd565b92915050565b60006020828403121561063f5761063e6105f8565b5b600061064d84828501610614565b91505092915050565b600063ffffffff82169050919050565b61066f81610656565b82525050565b600060208201905061068a6000830184610666565b92915050565b600081519050919050565b600082825260208201905092915050565b6000819050602082019050919050565b6106c5816105c4565b82525050565b60006106d783836106bc565b60208301905092915050565b6000602082019050919050565b60006106fb82610690565b610705818561069b565b9350610710836106ac565b8060005b8381101561074157815161072888826106cb565b9750610733836106e3565b925050600181019050610714565b5085935050505092915050565b6000602082019050818103600083015261076881846106f0565b905092915050565b6003811061077d57600080fd5b50565b60008135905061078f81610770565b92915050565b6000602082840312156107ab576107aa6105f8565b5b60006107b984828501610780565b91505092915050565b6000819050919050565b6107dd6107d8826105c4565b6107c2565b82525050565b60006107ef82856107cc565b6020820191506107ff82846107cc565b6020820191508190509392505050565b600082825260208201905092915050565b7f504c656173652073656e64206d6f7265204d6f6e657900000000000000000000600082015250565b600061085660168361080f565b915061086182610820565b602082019050919050565b6000602082019050818103600083015261088581610849565b9050919050565b7f4e487b7100000000000000000000000000000000000000000000000000000000600052604160045260246000fd5b7f4e487b7100000000000000000000000000000000000000000000000000000000600052603260045260246000fd5b7f4e487b7100000000000000000000000000000000000000000000000000000000600052602160045260246000fd5b7f4e487b7100000000000000000000000000000000000000000000000000000000600052601260045260246000fd5b6000610953826105c4565b915061095e836105c4565b92508261096e5761096d610919565b5b828206905092915050565b7f4e487b7100000000000000000000000000000000000000000000000000000000600052601160045260246000fd5b60006109b3826105c4565b91506109be836105c4565b9250827fffffffffffffffffffffffffffffffffffffffffffffffffffffffffffffffff038211156109f3576109f2610979565b5b828201905092915050565b6000610a09826105c4565b91506000821415610a1d57610a1c610979565b5b60018203905091905056fea264697066735822122028609e6445c04cbc50c751bbdba4155962decf662000e395f92955baa16432d864736f6c634300080a0033",
  "linkReferences": {},
  "deployedLinkReferences": {}
}