{
  "_format": "hh-sol-artifact-1",
  "contractName": "Hero",
  "sourceName": "contracts/Hero.sol",
  "abi": [
    {
      "inputs": [
        {
          "internalType": "enum Hero.Class",
          "name": "class",
          "type": "uint8"
        }
      ],
      "name": "createHero",
      "outputs": [],
      "stateMutability": "payable",
      "type": "function"
    },
    {
      "inputs": [],
      "name": "getHeros",
      "outputs": [
        {
          "internalType": "uint256[]",
          "name": "",
          "type": "uint256[]"
        }
      ],
      "stateMutability": "view",
      "type": "function"
    }
  ],
  "bytecode": "0x608060405234801561001057600080fd5b5061034a806100206000396000f3fe6080604052600436106100295760003560e01c80633be38b491461002e5780635e7e236d14610059575b600080fd5b34801561003a57600080fd5b50610043610075565b604051610050919061021e565b60405180910390f35b610073600480360381019061006e919061026a565b610109565b005b60606000803373ffffffffffffffffffffffffffffffffffffffff1673ffffffffffffffffffffffffffffffffffffffff1681526020019081526020016000208054806020026020016040519081016040528092919081815260200182805480156100ff57602002820191906000526020600020905b8154815260200190600101908083116100eb575b5050505050905090565b66b1a2bc2ec50000341015610153576040517f08c379a000000000000000000000000000000000000000000000000000000000815260040161014a906102f4565b60405180910390fd5b50565b600081519050919050565b600082825260208201905092915050565b6000819050602082019050919050565b6000819050919050565b61019581610182565b82525050565b60006101a7838361018c565b60208301905092915050565b6000602082019050919050565b60006101cb82610156565b6101d58185610161565b93506101e083610172565b8060005b838110156102115781516101f8888261019b565b9750610203836101b3565b9250506001810190506101e4565b5085935050505092915050565b6000602082019050818103600083015261023881846101c0565b905092915050565b600080fd5b6003811061025257600080fd5b50565b60008135905061026481610245565b92915050565b6000602082840312156102805761027f610240565b5b600061028e84828501610255565b91505092915050565b600082825260208201905092915050565b7f504c656173652073656e64206d6f7265204d6f6e657900000000000000000000600082015250565b60006102de601683610297565b91506102e9826102a8565b602082019050919050565b6000602082019050818103600083015261030d816102d1565b905091905056fea26469706673582212201ed53c2efe6ac5381c9ce2e70faa13185b173607e0538122c6117b8489817e1264736f6c634300080a0033",
  "linkReferences": {},
  "deployedLinkReferences": {}
}