{
  "_format": "hh-sol-artifact-1",
  "contractName": "Counter",
  "sourceName": "contracts/Counter.sol",
  "abi": [
    {
      "anonymous": false,
      "inputs": [
        {
          "indexed": false,
          "internalType": "uint256",
          "name": "counter",
          "type": "uint256"
        }
      ],
      "name": "counterInc",
      "type": "event"
    },
    {
      "inputs": [],
      "name": "count",
      "outputs": [],
      "stateMutability": "nonpayable",
      "type": "function"
    },
    {
      "inputs": [],
      "name": "getCount",
      "outputs": [
        {
          "internalType": "uint32",
          "name": "",
          "type": "uint32"
        }
      ],
      "stateMutability": "view",
      "type": "function"
    }
  ],
  "bytecode": "0x608060405234801561001057600080fd5b506103b4806100206000396000f3fe608060405234801561001057600080fd5b50600436106100365760003560e01c806306661abd1461003b578063a87d942c14610045575b600080fd5b610043610063565b005b61004d6100f4565b60405161005a91906101e1565b60405180910390f35b600a6000546100729190610235565b6000819055506100b96040518060400160405280601081526020017f436f756e746572206973206e6f772020000000000000000000000000000000008152506000546100fd565b7fd07e9e610205871275c685c96170bccf40bc5e545b4297b422c86a1a54281b076000546040516100ea919061029a565b60405180910390a1565b60008054905090565b610195828260405160240161011392919061034e565b6040516020818303038152906040527f9710a9d0000000000000000000000000000000000000000000000000000000007bffffffffffffffffffffffffffffffffffffffffffffffffffffffff19166020820180517bffffffffffffffffffffffffffffffffffffffffffffffffffffffff8381831617835250505050610199565b5050565b60008151905060006a636f6e736f6c652e6c6f679050602083016000808483855afa5050505050565b600063ffffffff82169050919050565b6101db816101c2565b82525050565b60006020820190506101f660008301846101d2565b92915050565b6000819050919050565b7f4e487b7100000000000000000000000000000000000000000000000000000000600052601160045260246000fd5b6000610240826101fc565b915061024b836101fc565b9250827fffffffffffffffffffffffffffffffffffffffffffffffffffffffffffffffff038211156102805761027f610206565b5b828201905092915050565b610294816101fc565b82525050565b60006020820190506102af600083018461028b565b92915050565b600081519050919050565b600082825260208201905092915050565b60005b838110156102ef5780820151818401526020810190506102d4565b838111156102fe576000848401525b50505050565b6000601f19601f8301169050919050565b6000610320826102b5565b61032a81856102c0565b935061033a8185602086016102d1565b61034381610304565b840191505092915050565b600060408201905081810360008301526103688185610315565b9050610377602083018461028b565b939250505056fea26469706673582212204e12b891d85511275a4c92533cf399094f41599ff71850f1dc2b5e2e7a4a340264736f6c634300080a0033",
  "linkReferences": {},
  "deployedLinkReferences": {}
}