{
  "_format": "hh-sol-artifact-1",
  "contractName": "TestHero",
  "sourceName": "contracts/TestHero.sol",
  "abi": [
    {
      "inputs": [
        {
          "internalType": "enum Hero.Class",
          "name": "class",
          "type": "uint8"
        }
      ],
      "name": "createHero",
      "outputs": [],
      "stateMutability": "payable",
      "type": "function"
    },
    {
      "inputs": [],
      "name": "generateRandom",
      "outputs": [
        {
          "internalType": "uint256",
          "name": "",
          "type": "uint256"
        }
      ],
      "stateMutability": "view",
      "type": "function"
    },
    {
      "inputs": [
        {
          "internalType": "uint256",
          "name": "hero",
          "type": "uint256"
        }
      ],
      "name": "getDex",
      "outputs": [
        {
          "internalType": "uint32",
          "name": "",
          "type": "uint32"
        }
      ],
      "stateMutability": "pure",
      "type": "function"
    },
    {
      "inputs": [
        {
          "internalType": "uint256",
          "name": "hero",
          "type": "uint256"
        }
      ],
      "name": "getHealth",
      "outputs": [
        {
          "internalType": "uint32",
          "name": "",
          "type": "uint32"
        }
      ],
      "stateMutability": "pure",
      "type": "function"
    },
    {
      "inputs": [
        {
          "internalType": "uint256",
          "name": "hero",
          "type": "uint256"
        }
      ],
      "name": "getHero",
      "outputs": [
        {
          "internalType": "uint32",
          "name": "",
          "type": "uint32"
        }
      ],
      "stateMutability": "pure",
      "type": "function"
    },
    {
      "inputs": [],
      "name": "getHeros",
      "outputs": [
        {
          "internalType": "uint256[]",
          "name": "",
          "type": "uint256[]"
        }
      ],
      "stateMutability": "view",
      "type": "function"
    },
    {
      "inputs": [
        {
          "internalType": "uint256",
          "name": "hero",
          "type": "uint256"
        }
      ],
      "name": "getItelect",
      "outputs": [
        {
          "internalType": "uint32",
          "name": "",
          "type": "uint32"
        }
      ],
      "stateMutability": "pure",
      "type": "function"
    },
    {
      "inputs": [
        {
          "internalType": "uint256",
          "name": "hero",
          "type": "uint256"
        }
      ],
      "name": "getMagic",
      "outputs": [
        {
          "internalType": "uint32",
          "name": "",
          "type": "uint32"
        }
      ],
      "stateMutability": "pure",
      "type": "function"
    },
    {
      "inputs": [
        {
          "internalType": "uint256",
          "name": "r",
          "type": "uint256"
        }
      ],
      "name": "setRandom",
      "outputs": [],
      "stateMutability": "nonpayable",
      "type": "function"
    }
  ],
  "bytecode": "0x608060405234801561001057600080fd5b50610a26806100206000396000f3fe6080604052600436106100865760003560e01c80635bc0a623116100595780635bc0a6231461015b5780635e7e236d146101985780636bf56132146101b4578063729e7cf6146101f1578063b5f0f1b71461021a57610086565b806302e4af011461008b57806321d80111146100b65780633be38b49146100f35780633fc70f2c1461011e575b600080fd5b34801561009757600080fd5b506100a0610257565b6040516100ad91906105f2565b60405180910390f35b3480156100c257600080fd5b506100dd60048036038101906100d8919061063e565b610261565b6040516100ea919061068a565b60405180910390f35b3480156100ff57600080fd5b50610108610272565b6040516101159190610763565b60405180910390f35b34801561012a57600080fd5b506101456004803603810190610140919061063e565b610306565b604051610152919061068a565b60405180910390f35b34801561016757600080fd5b50610182600480360381019061017d919061063e565b610317565b60405161018f919061068a565b60405180910390f35b6101b260048036038101906101ad91906107aa565b610328565b005b3480156101c057600080fd5b506101db60048036038101906101d6919061063e565b6105ad565b6040516101e8919061068a565b60405180910390f35b3480156101fd57600080fd5b506102186004803603810190610213919061063e565b6105be565b005b34801561022657600080fd5b50610241600480360381019061023c919061063e565b6105c8565b60405161024e919061068a565b60405180910390f35b6000600154905090565b6000601f600283901c169050919050565b60606000803373ffffffffffffffffffffffffffffffffffffffff1673ffffffffffffffffffffffffffffffffffffffff1681526020019081526020016000208054806020026020016040519081016040528092919081815260200182805480156102fc57602002820191906000526020600020905b8154815260200190600101908083116102e8575b5050505050905090565b6000601f600583901c169050919050565b6000601f601183901c169050919050565b66b1a2bc2ec50000341015610372576040517f08c379a000000000000000000000000000000000000000000000000000000000815260040161036990610834565b60405180910390fd5b6000600567ffffffffffffffff81111561038f5761038e610854565b5b6040519080825280602002602001820160405280156103bd5781602001602082028036833780820191505090505b5090506002816000815181106103d6576103d5610883565b5b6020026020010181815250506007816001815181106103f8576103f7610883565b5b602002602001018181525050600c8160028151811061041a57610419610883565b5b60200260200101818152505060118160038151811061043c5761043b610883565b5b60200260200101818152505060168160048151811061045e5761045d610883565b5b6020026020010181815250506000600590506000836002811115610485576104846108b2565b5b90505b600082610493610257565b61049d9190610910565b90506000600184600d6104b09190610970565b6104b8610257565b6104c29190610910565b6104cc9190610970565b90508482815181106104e1576104e0610883565b5b602002602001015181901b8317925083806104fb906109c6565b94505084848151811061051157610510610883565b5b602002602001015185838151811061052c5761052b610883565b5b602002602001018181525050505060008211610488576000803373ffffffffffffffffffffffffffffffffffffffff1673ffffffffffffffffffffffffffffffffffffffff16815260200190815260200160002081908060018154018082558091505060019003906000526020600020016000909190919091505550505050565b6000601f600c83901c169050919050565b8060018190555050565b6000601f600783901c169050919050565b6000819050919050565b6105ec816105d9565b82525050565b600060208201905061060760008301846105e3565b92915050565b600080fd5b61061b816105d9565b811461062657600080fd5b50565b60008135905061063881610612565b92915050565b6000602082840312156106545761065361060d565b5b600061066284828501610629565b91505092915050565b600063ffffffff82169050919050565b6106848161066b565b82525050565b600060208201905061069f600083018461067b565b92915050565b600081519050919050565b600082825260208201905092915050565b6000819050602082019050919050565b6106da816105d9565b82525050565b60006106ec83836106d1565b60208301905092915050565b6000602082019050919050565b6000610710826106a5565b61071a81856106b0565b9350610725836106c1565b8060005b8381101561075657815161073d88826106e0565b9750610748836106f8565b925050600181019050610729565b5085935050505092915050565b6000602082019050818103600083015261077d8184610705565b905092915050565b6003811061079257600080fd5b50565b6000813590506107a481610785565b92915050565b6000602082840312156107c0576107bf61060d565b5b60006107ce84828501610795565b91505092915050565b600082825260208201905092915050565b7f504c656173652073656e64206d6f7265204d6f6e657900000000000000000000600082015250565b600061081e6016836107d7565b9150610829826107e8565b602082019050919050565b6000602082019050818103600083015261084d81610811565b9050919050565b7f4e487b7100000000000000000000000000000000000000000000000000000000600052604160045260246000fd5b7f4e487b7100000000000000000000000000000000000000000000000000000000600052603260045260246000fd5b7f4e487b7100000000000000000000000000000000000000000000000000000000600052602160045260246000fd5b7f4e487b7100000000000000000000000000000000000000000000000000000000600052601260045260246000fd5b600061091b826105d9565b9150610926836105d9565b925082610936576109356108e1565b5b828206905092915050565b7f4e487b7100000000000000000000000000000000000000000000000000000000600052601160045260246000fd5b600061097b826105d9565b9150610986836105d9565b9250827fffffffffffffffffffffffffffffffffffffffffffffffffffffffffffffffff038211156109bb576109ba610941565b5b828201905092915050565b60006109d1826105d9565b915060008214156109e5576109e4610941565b5b60018203905091905056fea264697066735822122054c32d1ae73f22054b3b77e66c8f977f50bec475210a3cf93e2b85243842b54f64736f6c634300080a0033",
  "linkReferences": {},
  "deployedLinkReferences": {}
}